{
  "_format": "hh-sol-artifact-1",
  "contractName": "BlackwingAaveDeployer",
  "sourceName": "contracts/evm/launch_vault/deployer/aave_deployer.sol",
  "abi": [
    {
      "inputs": [
        {
          "internalType": "contract IPoolAddressesProviderRegistry",
          "name": "_aaveRegistry",
          "type": "address"
        }
      ],
      "stateMutability": "nonpayable",
      "type": "constructor"
    },
    {
      "inputs": [],
      "name": "AccessControlBadConfirmation",
      "type": "error"
    },
    {
      "inputs": [
        {
          "internalType": "address",
          "name": "account",
          "type": "address"
        },
        {
          "internalType": "bytes32",
          "name": "neededRole",
          "type": "bytes32"
        }
      ],
      "name": "AccessControlUnauthorizedAccount",
      "type": "error"
    },
    {
      "anonymous": false,
      "inputs": [
        {
          "indexed": true,
          "internalType": "bytes32",
          "name": "role",
          "type": "bytes32"
        },
        {
          "indexed": true,
          "internalType": "bytes32",
          "name": "previousAdminRole",
          "type": "bytes32"
        },
        {
          "indexed": true,
          "internalType": "bytes32",
          "name": "newAdminRole",
          "type": "bytes32"
        }
      ],
      "name": "RoleAdminChanged",
      "type": "event"
    },
    {
      "anonymous": false,
      "inputs": [
        {
          "indexed": true,
          "internalType": "bytes32",
          "name": "role",
          "type": "bytes32"
        },
        {
          "indexed": true,
          "internalType": "address",
          "name": "account",
          "type": "address"
        },
        {
          "indexed": true,
          "internalType": "address",
          "name": "sender",
          "type": "address"
        }
      ],
      "name": "RoleGranted",
      "type": "event"
    },
    {
      "anonymous": false,
      "inputs": [
        {
          "indexed": true,
          "internalType": "bytes32",
          "name": "role",
          "type": "bytes32"
        },
        {
          "indexed": true,
          "internalType": "address",
          "name": "account",
          "type": "address"
        },
        {
          "indexed": true,
          "internalType": "address",
          "name": "sender",
          "type": "address"
        }
      ],
      "name": "RoleRevoked",
      "type": "event"
    },
    {
      "inputs": [],
      "name": "DEFAULT_ADMIN_ROLE",
      "outputs": [
        {
          "internalType": "bytes32",
          "name": "",
          "type": "bytes32"
        }
      ],
      "stateMutability": "view",
      "type": "function"
    },
    {
      "inputs": [],
      "name": "INVALID_ATOKEN_ERR",
      "outputs": [
        {
          "internalType": "string",
          "name": "",
          "type": "string"
        }
      ],
      "stateMutability": "view",
      "type": "function"
    },
    {
      "inputs": [],
      "name": "INVALID_POOL_ADDRESS_PROVIDER_ERR",
      "outputs": [
        {
          "internalType": "string",
          "name": "",
          "type": "string"
        }
      ],
      "stateMutability": "view",
      "type": "function"
    },
    {
      "inputs": [],
      "name": "NOT_ENOUGH_ATOKENS_TO_BURN",
      "outputs": [
        {
          "internalType": "string",
          "name": "",
          "type": "string"
        }
      ],
      "stateMutability": "view",
      "type": "function"
    },
    {
      "inputs": [],
      "name": "OWNER_ROLE",
      "outputs": [
        {
          "internalType": "bytes32",
          "name": "",
          "type": "bytes32"
        }
      ],
      "stateMutability": "view",
      "type": "function"
    },
    {
      "inputs": [],
      "name": "UNAUTHORIZED_ERR",
      "outputs": [
        {
          "internalType": "string",
          "name": "",
          "type": "string"
        }
      ],
      "stateMutability": "view",
      "type": "function"
    },
    {
      "inputs": [],
      "name": "UNREGISTERED_ASSET_ERR",
      "outputs": [
        {
          "internalType": "string",
          "name": "",
          "type": "string"
        }
      ],
      "stateMutability": "view",
      "type": "function"
    },
    {
      "inputs": [],
      "name": "VAULT_ROLE",
      "outputs": [
        {
          "internalType": "bytes32",
          "name": "",
          "type": "bytes32"
        }
      ],
      "stateMutability": "view",
      "type": "function"
    },
    {
      "inputs": [
        {
          "internalType": "contract IERC20",
          "name": "asset",
          "type": "address"
        },
        {
          "internalType": "uint256",
          "name": "amount",
          "type": "uint256"
        }
      ],
      "name": "deploy",
      "outputs": [],
      "stateMutability": "nonpayable",
      "type": "function"
    },
    {
      "inputs": [
        {
          "internalType": "bytes32",
          "name": "role",
          "type": "bytes32"
        }
      ],
      "name": "getRoleAdmin",
      "outputs": [
        {
          "internalType": "bytes32",
          "name": "",
          "type": "bytes32"
        }
      ],
      "stateMutability": "view",
      "type": "function"
    },
    {
      "inputs": [
        {
          "internalType": "bytes32",
          "name": "role",
          "type": "bytes32"
        },
        {
          "internalType": "address",
          "name": "account",
          "type": "address"
        }
      ],
      "name": "grantRole",
      "outputs": [],
      "stateMutability": "nonpayable",
      "type": "function"
    },
    {
      "inputs": [
        {
          "internalType": "bytes32",
          "name": "role",
          "type": "bytes32"
        },
        {
          "internalType": "address",
          "name": "account",
          "type": "address"
        }
      ],
      "name": "hasRole",
      "outputs": [
        {
          "internalType": "bool",
          "name": "",
          "type": "bool"
        }
      ],
      "stateMutability": "view",
      "type": "function"
    },
    {
      "inputs": [
        {
          "internalType": "contract IERC20",
          "name": "asset",
          "type": "address"
        }
      ],
      "name": "poolToken",
      "outputs": [
        {
          "internalType": "address",
          "name": "",
          "type": "address"
        }
      ],
      "stateMutability": "view",
      "type": "function"
    },
    {
      "inputs": [
        {
          "internalType": "address",
          "name": "vault",
          "type": "address"
        }
      ],
      "name": "registerVault",
      "outputs": [],
      "stateMutability": "nonpayable",
      "type": "function"
    },
    {
      "inputs": [
        {
          "internalType": "contract IERC20",
          "name": "asset",
          "type": "address"
        },
        {
          "internalType": "uint256",
          "name": "amount",
          "type": "uint256"
        }
      ],
      "name": "remove",
      "outputs": [],
      "stateMutability": "nonpayable",
      "type": "function"
    },
    {
      "inputs": [
        {
          "internalType": "bytes32",
          "name": "role",
          "type": "bytes32"
        },
        {
          "internalType": "address",
          "name": "callerConfirmation",
          "type": "address"
        }
      ],
      "name": "renounceRole",
      "outputs": [],
      "stateMutability": "nonpayable",
      "type": "function"
    },
    {
      "inputs": [
        {
          "internalType": "bytes32",
          "name": "role",
          "type": "bytes32"
        },
        {
          "internalType": "address",
          "name": "account",
          "type": "address"
        }
      ],
      "name": "revokeRole",
      "outputs": [],
      "stateMutability": "nonpayable",
      "type": "function"
    },
    {
      "inputs": [
        {
          "internalType": "bytes4",
          "name": "interfaceId",
          "type": "bytes4"
        }
      ],
      "name": "supportsInterface",
      "outputs": [
        {
          "internalType": "bool",
          "name": "",
          "type": "bool"
        }
      ],
      "stateMutability": "view",
      "type": "function"
    },
    {
      "inputs": [
        {
          "internalType": "contract IERC20",
          "name": "asset",
          "type": "address"
        }
      ],
      "name": "totalDeployedAmount",
      "outputs": [
        {
          "internalType": "uint256",
          "name": "",
          "type": "uint256"
        }
      ],
      "stateMutability": "view",
      "type": "function"
    },
    {
      "inputs": [
        {
          "internalType": "contract IERC20",
          "name": "asset",
          "type": "address"
        },
        {
          "internalType": "contract IPoolAddressesProvider",
          "name": "pap",
          "type": "address"
        }
      ],
      "name": "whitelistAsset",
      "outputs": [],
      "stateMutability": "nonpayable",
      "type": "function"
    }
  ],
  "bytecode": "0x60806040523480156200001157600080fd5b506040516200251e3803806200251e8339818101604052810190620000379190620002a5565b620000697fb19546dff01e856fb3f010c267a7b1c60363cf8a4664e21cc89c26224620214e33620000b260201b60201c565b5080600160006101000a81548173ffffffffffffffffffffffffffffffffffffffff021916908373ffffffffffffffffffffffffffffffffffffffff16021790555050620002d7565b6000620000c68383620001b560201b60201c565b620001aa57600160008085815260200190815260200160002060000160008473ffffffffffffffffffffffffffffffffffffffff1673ffffffffffffffffffffffffffffffffffffffff16815260200190815260200160002060006101000a81548160ff021916908315150217905550620001466200021f60201b60201c565b73ffffffffffffffffffffffffffffffffffffffff168273ffffffffffffffffffffffffffffffffffffffff16847f2f8788117e7eff1d82e926ec794901d17c78024a50270940304540a733656f0d60405160405180910390a460019050620001af565b600090505b92915050565b600080600084815260200190815260200160002060000160008373ffffffffffffffffffffffffffffffffffffffff1673ffffffffffffffffffffffffffffffffffffffff16815260200190815260200160002060009054906101000a900460ff16905092915050565b600033905090565b600080fd5b600073ffffffffffffffffffffffffffffffffffffffff82169050919050565b600062000259826200022c565b9050919050565b60006200026d826200024c565b9050919050565b6200027f8162000260565b81146200028b57600080fd5b50565b6000815190506200029f8162000274565b92915050565b600060208284031215620002be57620002bd62000227565b5b6000620002ce848285016200028e565b91505092915050565b61223780620002e76000396000f3fe608060405234801561001057600080fd5b506004361061012c5760003560e01c806391d14854116100ad578063d547741f11610071578063d547741f14610341578063d9d185931461035d578063df11653d1461037b578063e58378bb14610399578063ea672287146103b75761012c565b806391d148541461029b57806398c4f1ac146102cb578063a217fddf146102e9578063abe7f1ab14610307578063af4f19a6146103235761012c565b80634bd6ae58116100f45780634bd6ae58146101e55780635768adcf1461020357806367ccd1cb1461023357806376aad6e41461024f5780638635a1f11461026b5761012c565b806301ffc9a714610131578063248a9ca3146101615780632f2ff15d1461019157806336568abe146101ad5780634956eaf0146101c9575b600080fd5b61014b600480360381019061014691906118e4565b6103d5565b604051610158919061192c565b60405180910390f35b61017b6004803603810190610176919061197d565b61044f565b60405161018891906119b9565b60405180910390f35b6101ab60048036038101906101a69190611a32565b61046e565b005b6101c760048036038101906101c29190611a32565b610490565b005b6101e360048036038101906101de9190611ae6565b61050b565b005b6101ed610702565b6040516101fa9190611bb6565b60405180910390f35b61021d60048036038101906102189190611bd8565b61073b565b60405161022a9190611c14565b60405180910390f35b61024d60048036038101906102489190611c2f565b6107b0565b005b61026960048036038101906102649190611c9a565b610880565b005b61028560048036038101906102809190611bd8565b610e94565b6040516102929190611ce9565b60405180910390f35b6102b560048036038101906102b09190611a32565b610f82565b6040516102c2919061192c565b60405180910390f35b6102d3610fec565b6040516102e091906119b9565b60405180910390f35b6102f1611010565b6040516102fe91906119b9565b60405180910390f35b610321600480360381019061031c9190611ae6565b611017565b005b61032b6113ce565b6040516103389190611bb6565b60405180910390f35b61035b60048036038101906103569190611a32565b611407565b005b610365611429565b6040516103729190611bb6565b60405180910390f35b610383611462565b6040516103909190611bb6565b60405180910390f35b6103a161149b565b6040516103ae91906119b9565b60405180910390f35b6103bf6114bf565b6040516103cc9190611bb6565b60405180910390f35b60007f7965db0b000000000000000000000000000000000000000000000000000000007bffffffffffffffffffffffffffffffffffffffffffffffffffffffff1916827bffffffffffffffffffffffffffffffffffffffffffffffffffffffff191614806104485750610447826114f8565b5b9050919050565b6000806000838152602001908152602001600020600101549050919050565b6104778261044f565b61048081611562565b61048a8383611576565b50505050565b610498611667565b73ffffffffffffffffffffffffffffffffffffffff168173ffffffffffffffffffffffffffffffffffffffff16146104fc576040517f6697b23200000000000000000000000000000000000000000000000000000000815260040160405180910390fd5b610506828261166f565b505050565b6105357f31e0210044b4f6757ce6aa31f9c6e8d4896d24a755014887391a926c5224d95933610f82565b6040518060400160405280600181526020017f3200000000000000000000000000000000000000000000000000000000000000815250906105ac576040517f08c379a00000000000000000000000000000000000000000000000000000000081526004016105a39190611bb6565b60405180910390fd5b506105b682611761565b6000600260008473ffffffffffffffffffffffffffffffffffffffff1673ffffffffffffffffffffffffffffffffffffffff16815260200190815260200160002060010160009054906101000a900473ffffffffffffffffffffffffffffffffffffffff1673ffffffffffffffffffffffffffffffffffffffff1663026b1d5f6040518163ffffffff1660e01b8152600401602060405180830381865afa158015610665573d6000803e3d6000fd5b505050506040513d601f19601f820116820180604052508101906106899190611d19565b90508073ffffffffffffffffffffffffffffffffffffffff1663617ba03784843360006040518563ffffffff1660e01b81526004016106cb9493929190611d99565b600060405180830381600087803b1580156106e557600080fd5b505af11580156106f9573d6000803e3d6000fd5b50505050505050565b6040518060400160405280600181526020017f340000000000000000000000000000000000000000000000000000000000000081525081565b600061074682611761565b600260008373ffffffffffffffffffffffffffffffffffffffff1673ffffffffffffffffffffffffffffffffffffffff16815260200190815260200160002060000160009054906101000a900473ffffffffffffffffffffffffffffffffffffffff169050919050565b6107da7fb19546dff01e856fb3f010c267a7b1c60363cf8a4664e21cc89c26224620214e33610f82565b6040518060400160405280600181526020017f320000000000000000000000000000000000000000000000000000000000000081525090610851576040517f08c379a00000000000000000000000000000000000000000000000000000000081526004016108489190611bb6565b60405180910390fd5b5061087c7f31e0210044b4f6757ce6aa31f9c6e8d4896d24a755014887391a926c5224d95982611576565b5050565b6108aa7fb19546dff01e856fb3f010c267a7b1c60363cf8a4664e21cc89c26224620214e33610f82565b6040518060400160405280600181526020017f320000000000000000000000000000000000000000000000000000000000000081525090610921576040517f08c379a00000000000000000000000000000000000000000000000000000000081526004016109189190611bb6565b60405180910390fd5b506000600160009054906101000a900473ffffffffffffffffffffffffffffffffffffffff1673ffffffffffffffffffffffffffffffffffffffff1663d0267be7836040518263ffffffff1660e01b815260040161097f9190611c14565b602060405180830381865afa15801561099c573d6000803e3d6000fd5b505050506040513d601f19601f820116820180604052508101906109c09190611df3565b116040518060400160405280600181526020017f340000000000000000000000000000000000000000000000000000000000000081525090610a38576040517f08c379a0000000000000000000000000000000000000000000000000000000008152600401610a2f9190611bb6565b60405180910390fd5b5060008173ffffffffffffffffffffffffffffffffffffffff1663026b1d5f6040518163ffffffff1660e01b8152600401602060405180830381865afa158015610a86573d6000803e3d6000fd5b505050506040513d601f19601f82011682018060405250810190610aaa9190611d19565b73ffffffffffffffffffffffffffffffffffffffff166335ea6a75846040518263ffffffff1660e01b8152600401610ae29190611c14565b6101e060405180830381865afa158015610b00573d6000803e3d6000fd5b505050506040513d601f19601f82011682018060405250810190610b2491906120f1565b610100015190508273ffffffffffffffffffffffffffffffffffffffff168173ffffffffffffffffffffffffffffffffffffffff1663b16a19de6040518163ffffffff1660e01b8152600401602060405180830381865afa158015610b8d573d6000803e3d6000fd5b505050506040513d601f19601f82011682018060405250810190610bb19190611d19565b73ffffffffffffffffffffffffffffffffffffffff16146040518060400160405280600181526020017f330000000000000000000000000000000000000000000000000000000000000081525090610c3f576040517f08c379a0000000000000000000000000000000000000000000000000000000008152600401610c369190611bb6565b60405180910390fd5b508273ffffffffffffffffffffffffffffffffffffffff1663095ea7b38373ffffffffffffffffffffffffffffffffffffffff1663026b1d5f6040518163ffffffff1660e01b8152600401602060405180830381865afa158015610ca7573d6000803e3d6000fd5b505050506040513d601f19601f82011682018060405250810190610ccb9190611d19565b7fffffffffffffffffffffffffffffffffffffffffffffffffffffffffffffffff6040518363ffffffff1660e01b8152600401610d0992919061211f565b6020604051808303816000875af1158015610d28573d6000803e3d6000fd5b505050506040513d601f19601f82011682018060405250810190610d4c9190612174565b610d5557600080fd5b60405180606001604052808273ffffffffffffffffffffffffffffffffffffffff1681526020018373ffffffffffffffffffffffffffffffffffffffff16815260200160011515815250600260008573ffffffffffffffffffffffffffffffffffffffff1673ffffffffffffffffffffffffffffffffffffffff16815260200190815260200160002060008201518160000160006101000a81548173ffffffffffffffffffffffffffffffffffffffff021916908373ffffffffffffffffffffffffffffffffffffffff16021790555060208201518160010160006101000a81548173ffffffffffffffffffffffffffffffffffffffff021916908373ffffffffffffffffffffffffffffffffffffffff16021790555060408201518160010160146101000a81548160ff021916908315150217905550905050505050565b6000610e9f82611761565b600260008373ffffffffffffffffffffffffffffffffffffffff1673ffffffffffffffffffffffffffffffffffffffff16815260200190815260200160002060000160009054906101000a900473ffffffffffffffffffffffffffffffffffffffff1673ffffffffffffffffffffffffffffffffffffffff166370a08231336040518263ffffffff1660e01b8152600401610f3a9190611c14565b602060405180830381865afa158015610f57573d6000803e3d6000fd5b505050506040513d601f19601f82011682018060405250810190610f7b9190611df3565b9050919050565b600080600084815260200190815260200160002060000160008373ffffffffffffffffffffffffffffffffffffffff1673ffffffffffffffffffffffffffffffffffffffff16815260200190815260200160002060009054906101000a900460ff16905092915050565b7f31e0210044b4f6757ce6aa31f9c6e8d4896d24a755014887391a926c5224d95981565b6000801b81565b6110417f31e0210044b4f6757ce6aa31f9c6e8d4896d24a755014887391a926c5224d95933610f82565b6040518060400160405280600181526020017f3200000000000000000000000000000000000000000000000000000000000000815250906110b8576040517f08c379a00000000000000000000000000000000000000000000000000000000081526004016110af9190611bb6565b60405180910390fd5b506110c282611761565b6000600260008473ffffffffffffffffffffffffffffffffffffffff1673ffffffffffffffffffffffffffffffffffffffff1681526020019081526020016000206040518060600160405290816000820160009054906101000a900473ffffffffffffffffffffffffffffffffffffffff1673ffffffffffffffffffffffffffffffffffffffff1673ffffffffffffffffffffffffffffffffffffffff1681526020016001820160009054906101000a900473ffffffffffffffffffffffffffffffffffffffff1673ffffffffffffffffffffffffffffffffffffffff1673ffffffffffffffffffffffffffffffffffffffff1681526020016001820160149054906101000a900460ff161515151581525050905081816000015173ffffffffffffffffffffffffffffffffffffffff166370a08231306040518263ffffffff1660e01b81526004016112159190611c14565b602060405180830381865afa158015611232573d6000803e3d6000fd5b505050506040513d601f19601f820116820180604052508101906112569190611df3565b10156040518060400160405280600181526020017f3500000000000000000000000000000000000000000000000000000000000000815250906112cf576040517f08c379a00000000000000000000000000000000000000000000000000000000081526004016112c69190611bb6565b60405180910390fd5b506000816020015173ffffffffffffffffffffffffffffffffffffffff1663026b1d5f6040518163ffffffff1660e01b8152600401602060405180830381865afa158015611321573d6000803e3d6000fd5b505050506040513d601f19601f820116820180604052508101906113459190611d19565b90508073ffffffffffffffffffffffffffffffffffffffff166369328dec8585336040518463ffffffff1660e01b8152600401611384939291906121a1565b6020604051808303816000875af11580156113a3573d6000803e3d6000fd5b505050506040513d601f19601f820116820180604052508101906113c79190611df3565b5050505050565b6040518060400160405280600181526020017f320000000000000000000000000000000000000000000000000000000000000081525081565b6114108261044f565b61141981611562565b611423838361166f565b50505050565b6040518060400160405280600181526020017f330000000000000000000000000000000000000000000000000000000000000081525081565b6040518060400160405280600181526020017f310000000000000000000000000000000000000000000000000000000000000081525081565b7fb19546dff01e856fb3f010c267a7b1c60363cf8a4664e21cc89c26224620214e81565b6040518060400160405280600181526020017f350000000000000000000000000000000000000000000000000000000000000081525081565b60007f01ffc9a7000000000000000000000000000000000000000000000000000000007bffffffffffffffffffffffffffffffffffffffffffffffffffffffff1916827bffffffffffffffffffffffffffffffffffffffffffffffffffffffff1916149050919050565b6115738161156e611667565b61182c565b50565b60006115828383610f82565b61165c57600160008085815260200190815260200160002060000160008473ffffffffffffffffffffffffffffffffffffffff1673ffffffffffffffffffffffffffffffffffffffff16815260200190815260200160002060006101000a81548160ff0219169083151502179055506115f9611667565b73ffffffffffffffffffffffffffffffffffffffff168273ffffffffffffffffffffffffffffffffffffffff16847f2f8788117e7eff1d82e926ec794901d17c78024a50270940304540a733656f0d60405160405180910390a460019050611661565b600090505b92915050565b600033905090565b600061167b8383610f82565b1561175657600080600085815260200190815260200160002060000160008473ffffffffffffffffffffffffffffffffffffffff1673ffffffffffffffffffffffffffffffffffffffff16815260200190815260200160002060006101000a81548160ff0219169083151502179055506116f3611667565b73ffffffffffffffffffffffffffffffffffffffff168273ffffffffffffffffffffffffffffffffffffffff16847ff6391f5c32d9c69d2a47ea670b442974b53935d1edc7fd64eb21e047a839171b60405160405180910390a46001905061175b565b600090505b92915050565b600260008273ffffffffffffffffffffffffffffffffffffffff1673ffffffffffffffffffffffffffffffffffffffff16815260200190815260200160002060010160149054906101000a900460ff166040518060400160405280600181526020017f310000000000000000000000000000000000000000000000000000000000000081525090611828576040517f08c379a000000000000000000000000000000000000000000000000000000000815260040161181f9190611bb6565b60405180910390fd5b5050565b6118368282610f82565b6118795780826040517fe2517d3f0000000000000000000000000000000000000000000000000000000081526004016118709291906121d8565b60405180910390fd5b5050565b6000604051905090565b600080fd5b60007fffffffff0000000000000000000000000000000000000000000000000000000082169050919050565b6118c18161188c565b81146118cc57600080fd5b50565b6000813590506118de816118b8565b92915050565b6000602082840312156118fa576118f9611887565b5b6000611908848285016118cf565b91505092915050565b60008115159050919050565b61192681611911565b82525050565b6000602082019050611941600083018461191d565b92915050565b6000819050919050565b61195a81611947565b811461196557600080fd5b50565b60008135905061197781611951565b92915050565b60006020828403121561199357611992611887565b5b60006119a184828501611968565b91505092915050565b6119b381611947565b82525050565b60006020820190506119ce60008301846119aa565b92915050565b600073ffffffffffffffffffffffffffffffffffffffff82169050919050565b60006119ff826119d4565b9050919050565b611a0f816119f4565b8114611a1a57600080fd5b50565b600081359050611a2c81611a06565b92915050565b60008060408385031215611a4957611a48611887565b5b6000611a5785828601611968565b9250506020611a6885828601611a1d565b9150509250929050565b6000611a7d826119f4565b9050919050565b611a8d81611a72565b8114611a9857600080fd5b50565b600081359050611aaa81611a84565b92915050565b6000819050919050565b611ac381611ab0565b8114611ace57600080fd5b50565b600081359050611ae081611aba565b92915050565b60008060408385031215611afd57611afc611887565b5b6000611b0b85828601611a9b565b9250506020611b1c85828601611ad1565b9150509250929050565b600081519050919050565b600082825260208201905092915050565b60005b83811015611b60578082015181840152602081019050611b45565b60008484015250505050565b6000601f19601f8301169050919050565b6000611b8882611b26565b611b928185611b31565b9350611ba2818560208601611b42565b611bab81611b6c565b840191505092915050565b60006020820190508181036000830152611bd08184611b7d565b905092915050565b600060208284031215611bee57611bed611887565b5b6000611bfc84828501611a9b565b91505092915050565b611c0e816119f4565b82525050565b6000602082019050611c296000830184611c05565b92915050565b600060208284031215611c4557611c44611887565b5b6000611c5384828501611a1d565b91505092915050565b6000611c67826119f4565b9050919050565b611c7781611c5c565b8114611c8257600080fd5b50565b600081359050611c9481611c6e565b92915050565b60008060408385031215611cb157611cb0611887565b5b6000611cbf85828601611a9b565b9250506020611cd085828601611c85565b9150509250929050565b611ce381611ab0565b82525050565b6000602082019050611cfe6000830184611cda565b92915050565b600081519050611d1381611a06565b92915050565b600060208284031215611d2f57611d2e611887565b5b6000611d3d84828501611d04565b91505092915050565b6000819050919050565b600061ffff82169050919050565b6000819050919050565b6000611d83611d7e611d7984611d46565b611d5e565b611d50565b9050919050565b611d9381611d68565b82525050565b6000608082019050611dae6000830187611c05565b611dbb6020830186611cda565b611dc86040830185611c05565b611dd56060830184611d8a565b95945050505050565b600081519050611ded81611aba565b92915050565b600060208284031215611e0957611e08611887565b5b6000611e1784828501611dde565b91505092915050565b600080fd5b7f4e487b7100000000000000000000000000000000000000000000000000000000600052604160045260246000fd5b611e5d82611b6c565b810181811067ffffffffffffffff82111715611e7c57611e7b611e25565b5b80604052505050565b6000611e8f61187d565b9050611e9b8282611e54565b919050565b600060208284031215611eb657611eb5611e20565b5b611ec06020611e85565b90506000611ed084828501611dde565b60008301525092915050565b60006fffffffffffffffffffffffffffffffff82169050919050565b611f0181611edc565b8114611f0c57600080fd5b50565b600081519050611f1e81611ef8565b92915050565b600064ffffffffff82169050919050565b611f3e81611f24565b8114611f4957600080fd5b50565b600081519050611f5b81611f35565b92915050565b611f6a81611d50565b8114611f7557600080fd5b50565b600081519050611f8781611f61565b92915050565b60006101e08284031215611fa457611fa3611e20565b5b611faf6101e0611e85565b90506000611fbf84828501611ea0565b6000830152506020611fd384828501611f0f565b6020830152506040611fe784828501611f0f565b6040830152506060611ffb84828501611f0f565b606083015250608061200f84828501611f0f565b60808301525060a061202384828501611f0f565b60a08301525060c061203784828501611f4c565b60c08301525060e061204b84828501611f78565b60e08301525061010061206084828501611d04565b6101008301525061012061207684828501611d04565b6101208301525061014061208c84828501611d04565b610140830152506101606120a284828501611d04565b610160830152506101806120b884828501611f0f565b610180830152506101a06120ce84828501611f0f565b6101a0830152506101c06120e484828501611f0f565b6101c08301525092915050565b60006101e0828403121561210857612107611887565b5b600061211684828501611f8d565b91505092915050565b60006040820190506121346000830185611c05565b6121416020830184611cda565b9392505050565b61215181611911565b811461215c57600080fd5b50565b60008151905061216e81612148565b92915050565b60006020828403121561218a57612189611887565b5b60006121988482850161215f565b91505092915050565b60006060820190506121b66000830186611c05565b6121c36020830185611cda565b6121d06040830184611c05565b949350505050565b60006040820190506121ed6000830185611c05565b6121fa60208301846119aa565b939250505056fea264697066735822122060203cd3a1b2ddb863d187a996df91a3ea529592056e024d4b325d2779ea493764736f6c63430008170033",
  "linkReferences": {},
  "deployedLinkReferences": {}
}