{
  "_format": "hh-sol-artifact-1",
  "contractName": "MockAaveAddressProvider",
  "sourceName": "contracts/evm/tests/mock_aave.sol",
  "abi": [
    {
      "anonymous": false,
      "inputs": [
        {
          "indexed": true,
          "internalType": "address",
          "name": "oldAddress",
          "type": "address"
        },
        {
          "indexed": true,
          "internalType": "address",
          "name": "newAddress",
          "type": "address"
        }
      ],
      "name": "ACLAdminUpdated",
      "type": "event"
    },
    {
      "anonymous": false,
      "inputs": [
        {
          "indexed": true,
          "internalType": "address",
          "name": "oldAddress",
          "type": "address"
        },
        {
          "indexed": true,
          "internalType": "address",
          "name": "newAddress",
          "type": "address"
        }
      ],
      "name": "ACLManagerUpdated",
      "type": "event"
    },
    {
      "anonymous": false,
      "inputs": [
        {
          "indexed": true,
          "internalType": "bytes32",
          "name": "id",
          "type": "bytes32"
        },
        {
          "indexed": true,
          "internalType": "address",
          "name": "oldAddress",
          "type": "address"
        },
        {
          "indexed": true,
          "internalType": "address",
          "name": "newAddress",
          "type": "address"
        }
      ],
      "name": "AddressSet",
      "type": "event"
    },
    {
      "anonymous": false,
      "inputs": [
        {
          "indexed": true,
          "internalType": "bytes32",
          "name": "id",
          "type": "bytes32"
        },
        {
          "indexed": true,
          "internalType": "address",
          "name": "proxyAddress",
          "type": "address"
        },
        {
          "indexed": false,
          "internalType": "address",
          "name": "oldImplementationAddress",
          "type": "address"
        },
        {
          "indexed": true,
          "internalType": "address",
          "name": "newImplementationAddress",
          "type": "address"
        }
      ],
      "name": "AddressSetAsProxy",
      "type": "event"
    },
    {
      "anonymous": false,
      "inputs": [
        {
          "indexed": true,
          "internalType": "string",
          "name": "oldMarketId",
          "type": "string"
        },
        {
          "indexed": true,
          "internalType": "string",
          "name": "newMarketId",
          "type": "string"
        }
      ],
      "name": "MarketIdSet",
      "type": "event"
    },
    {
      "anonymous": false,
      "inputs": [
        {
          "indexed": true,
          "internalType": "address",
          "name": "oldAddress",
          "type": "address"
        },
        {
          "indexed": true,
          "internalType": "address",
          "name": "newAddress",
          "type": "address"
        }
      ],
      "name": "PoolConfiguratorUpdated",
      "type": "event"
    },
    {
      "anonymous": false,
      "inputs": [
        {
          "indexed": true,
          "internalType": "address",
          "name": "oldAddress",
          "type": "address"
        },
        {
          "indexed": true,
          "internalType": "address",
          "name": "newAddress",
          "type": "address"
        }
      ],
      "name": "PoolDataProviderUpdated",
      "type": "event"
    },
    {
      "anonymous": false,
      "inputs": [
        {
          "indexed": true,
          "internalType": "address",
          "name": "oldAddress",
          "type": "address"
        },
        {
          "indexed": true,
          "internalType": "address",
          "name": "newAddress",
          "type": "address"
        }
      ],
      "name": "PoolUpdated",
      "type": "event"
    },
    {
      "anonymous": false,
      "inputs": [
        {
          "indexed": true,
          "internalType": "address",
          "name": "oldAddress",
          "type": "address"
        },
        {
          "indexed": true,
          "internalType": "address",
          "name": "newAddress",
          "type": "address"
        }
      ],
      "name": "PriceOracleSentinelUpdated",
      "type": "event"
    },
    {
      "anonymous": false,
      "inputs": [
        {
          "indexed": true,
          "internalType": "address",
          "name": "oldAddress",
          "type": "address"
        },
        {
          "indexed": true,
          "internalType": "address",
          "name": "newAddress",
          "type": "address"
        }
      ],
      "name": "PriceOracleUpdated",
      "type": "event"
    },
    {
      "anonymous": false,
      "inputs": [
        {
          "indexed": true,
          "internalType": "bytes32",
          "name": "id",
          "type": "bytes32"
        },
        {
          "indexed": true,
          "internalType": "address",
          "name": "proxyAddress",
          "type": "address"
        },
        {
          "indexed": true,
          "internalType": "address",
          "name": "implementationAddress",
          "type": "address"
        }
      ],
      "name": "ProxyCreated",
      "type": "event"
    },
    {
      "inputs": [],
      "name": "getACLAdmin",
      "outputs": [
        {
          "internalType": "address",
          "name": "",
          "type": "address"
        }
      ],
      "stateMutability": "pure",
      "type": "function"
    },
    {
      "inputs": [],
      "name": "getACLManager",
      "outputs": [
        {
          "internalType": "address",
          "name": "",
          "type": "address"
        }
      ],
      "stateMutability": "pure",
      "type": "function"
    },
    {
      "inputs": [
        {
          "internalType": "bytes32",
          "name": "",
          "type": "bytes32"
        }
      ],
      "name": "getAddress",
      "outputs": [
        {
          "internalType": "address",
          "name": "",
          "type": "address"
        }
      ],
      "stateMutability": "pure",
      "type": "function"
    },
    {
      "inputs": [],
      "name": "getMarketId",
      "outputs": [
        {
          "internalType": "string",
          "name": "",
          "type": "string"
        }
      ],
      "stateMutability": "view",
      "type": "function"
    },
    {
      "inputs": [],
      "name": "getPool",
      "outputs": [
        {
          "internalType": "address",
          "name": "",
          "type": "address"
        }
      ],
      "stateMutability": "view",
      "type": "function"
    },
    {
      "inputs": [],
      "name": "getPoolConfigurator",
      "outputs": [
        {
          "internalType": "address",
          "name": "",
          "type": "address"
        }
      ],
      "stateMutability": "pure",
      "type": "function"
    },
    {
      "inputs": [],
      "name": "getPoolDataProvider",
      "outputs": [
        {
          "internalType": "address",
          "name": "",
          "type": "address"
        }
      ],
      "stateMutability": "pure",
      "type": "function"
    },
    {
      "inputs": [],
      "name": "getPriceOracle",
      "outputs": [
        {
          "internalType": "address",
          "name": "",
          "type": "address"
        }
      ],
      "stateMutability": "pure",
      "type": "function"
    },
    {
      "inputs": [],
      "name": "getPriceOracleSentinel",
      "outputs": [
        {
          "internalType": "address",
          "name": "",
          "type": "address"
        }
      ],
      "stateMutability": "pure",
      "type": "function"
    },
    {
      "inputs": [
        {
          "internalType": "address",
          "name": "",
          "type": "address"
        }
      ],
      "name": "setACLAdmin",
      "outputs": [],
      "stateMutability": "pure",
      "type": "function"
    },
    {
      "inputs": [
        {
          "internalType": "address",
          "name": "",
          "type": "address"
        }
      ],
      "name": "setACLManager",
      "outputs": [],
      "stateMutability": "pure",
      "type": "function"
    },
    {
      "inputs": [
        {
          "internalType": "bytes32",
          "name": "",
          "type": "bytes32"
        },
        {
          "internalType": "address",
          "name": "",
          "type": "address"
        }
      ],
      "name": "setAddress",
      "outputs": [],
      "stateMutability": "pure",
      "type": "function"
    },
    {
      "inputs": [
        {
          "internalType": "bytes32",
          "name": "",
          "type": "bytes32"
        },
        {
          "internalType": "address",
          "name": "",
          "type": "address"
        }
      ],
      "name": "setAddressAsProxy",
      "outputs": [],
      "stateMutability": "pure",
      "type": "function"
    },
    {
      "inputs": [
        {
          "internalType": "string",
          "name": "newMarketId",
          "type": "string"
        }
      ],
      "name": "setMarketId",
      "outputs": [],
      "stateMutability": "nonpayable",
      "type": "function"
    },
    {
      "inputs": [
        {
          "internalType": "address",
          "name": "",
          "type": "address"
        }
      ],
      "name": "setPoolConfiguratorImpl",
      "outputs": [],
      "stateMutability": "pure",
      "type": "function"
    },
    {
      "inputs": [
        {
          "internalType": "address",
          "name": "",
          "type": "address"
        }
      ],
      "name": "setPoolDataProvider",
      "outputs": [],
      "stateMutability": "pure",
      "type": "function"
    },
    {
      "inputs": [
        {
          "internalType": "address",
          "name": "newPoolImpl",
          "type": "address"
        }
      ],
      "name": "setPoolImpl",
      "outputs": [],
      "stateMutability": "nonpayable",
      "type": "function"
    },
    {
      "inputs": [
        {
          "internalType": "address",
          "name": "",
          "type": "address"
        }
      ],
      "name": "setPriceOracle",
      "outputs": [],
      "stateMutability": "pure",
      "type": "function"
    },
    {
      "inputs": [
        {
          "internalType": "address",
          "name": "",
          "type": "address"
        }
      ],
      "name": "setPriceOracleSentinel",
      "outputs": [],
      "stateMutability": "pure",
      "type": "function"
    }
  ],
  "bytecode": "0x608060405234801561001057600080fd5b50610adb806100206000396000f3fe608060405234801561001057600080fd5b50600436106101215760003560e01c806374944cec116100ad578063e4ca28b711610071578063e4ca28b7146102ce578063e860accb146102ea578063ed301ca914610308578063f67b184714610324578063fca513a81461034057610121565b806374944cec1461024257806376d84ffc1461025e578063a15644061461027a578063ca446dd914610296578063e44e9ed1146102b257610121565b8063568ef470116100f4578063568ef470146101ae5780635dcc528c146101cc5780635eb88d3d146101e8578063631adfca14610206578063707cd7161461022457610121565b8063026b1d5f146101265780630e67178c1461014457806321f8a72114610162578063530e784f14610192575b600080fd5b61012e61035e565b60405161013b9190610500565b60405180910390f35b61014c610388565b6040516101599190610500565b60405180910390f35b61017c6004803603810190610177919061055b565b61038d565b6040516101899190610500565b60405180910390f35b6101ac60048036038101906101a791906105b4565b610392565b005b6101b6610397565b6040516101c39190610671565b60405180910390f35b6101e660048036038101906101e19190610693565b610429565b005b6101f061042e565b6040516101fd9190610500565b60405180910390f35b61020e610433565b60405161021b9190610500565b60405180910390f35b61022c610438565b6040516102399190610500565b60405180910390f35b61025c600480360381019061025791906105b4565b61043d565b005b610278600480360381019061027391906105b4565b610442565b005b610294600480360381019061028f91906105b4565b610447565b005b6102b060048036038101906102ab9190610693565b61048b565b005b6102cc60048036038101906102c791906105b4565b610490565b005b6102e860048036038101906102e391906105b4565b610495565b005b6102f261049a565b6040516102ff9190610500565b60405180910390f35b610322600480360381019061031d91906105b4565b61049f565b005b61033e60048036038101906103399190610738565b6104a4565b005b6103486104ba565b6040516103559190610500565b60405180910390f35b6000600160009054906101000a900473ffffffffffffffffffffffffffffffffffffffff16905090565b600080fd5b600080fd5b600080fd5b6060600080546103a6906107b4565b80601f01602080910402602001604051908101604052809291908181526020018280546103d2906107b4565b801561041f5780601f106103f45761010080835404028352916020019161041f565b820191906000526020600020905b81548152906001019060200180831161040257829003601f168201915b5050505050905090565b600080fd5b600080fd5b600080fd5b600080fd5b600080fd5b600080fd5b80600160006101000a81548173ffffffffffffffffffffffffffffffffffffffff021916908373ffffffffffffffffffffffffffffffffffffffff16021790555050565b600080fd5b600080fd5b600080fd5b600080fd5b600080fd5b8181600091826104b59291906109d5565b505050565b600080fd5b600073ffffffffffffffffffffffffffffffffffffffff82169050919050565b60006104ea826104bf565b9050919050565b6104fa816104df565b82525050565b600060208201905061051560008301846104f1565b92915050565b600080fd5b600080fd5b6000819050919050565b61053881610525565b811461054357600080fd5b50565b6000813590506105558161052f565b92915050565b6000602082840312156105715761057061051b565b5b600061057f84828501610546565b91505092915050565b610591816104df565b811461059c57600080fd5b50565b6000813590506105ae81610588565b92915050565b6000602082840312156105ca576105c961051b565b5b60006105d88482850161059f565b91505092915050565b600081519050919050565b600082825260208201905092915050565b60005b8381101561061b578082015181840152602081019050610600565b60008484015250505050565b6000601f19601f8301169050919050565b6000610643826105e1565b61064d81856105ec565b935061065d8185602086016105fd565b61066681610627565b840191505092915050565b6000602082019050818103600083015261068b8184610638565b905092915050565b600080604083850312156106aa576106a961051b565b5b60006106b885828601610546565b92505060206106c98582860161059f565b9150509250929050565b600080fd5b600080fd5b600080fd5b60008083601f8401126106f8576106f76106d3565b5b8235905067ffffffffffffffff811115610715576107146106d8565b5b602083019150836001820283011115610731576107306106dd565b5b9250929050565b6000806020838503121561074f5761074e61051b565b5b600083013567ffffffffffffffff81111561076d5761076c610520565b5b610779858286016106e2565b92509250509250929050565b7f4e487b7100000000000000000000000000000000000000000000000000000000600052602260045260246000fd5b600060028204905060018216806107cc57607f821691505b6020821081036107df576107de610785565b5b50919050565b600082905092915050565b7f4e487b7100000000000000000000000000000000000000000000000000000000600052604160045260246000fd5b60008190508160005260206000209050919050565b60006020601f8301049050919050565b600082821b905092915050565b6000600883026108817fffffffffffffffffffffffffffffffffffffffffffffffffffffffffffffffff82610844565b61088b8683610844565b95508019841693508086168417925050509392505050565b6000819050919050565b6000819050919050565b60006108d26108cd6108c8846108a3565b6108ad565b6108a3565b9050919050565b6000819050919050565b6108ec836108b7565b6109006108f8826108d9565b848454610851565b825550505050565b600090565b610915610908565b6109208184846108e3565b505050565b5b818110156109445761093960008261090d565b600181019050610926565b5050565b601f8211156109895761095a8161081f565b61096384610834565b81016020851015610972578190505b61098661097e85610834565b830182610925565b50505b505050565b600082821c905092915050565b60006109ac6000198460080261098e565b1980831691505092915050565b60006109c5838361099b565b9150826002028217905092915050565b6109df83836107e5565b67ffffffffffffffff8111156109f8576109f76107f0565b5b610a0282546107b4565b610a0d828285610948565b6000601f831160018114610a3c5760008415610a2a578287013590505b610a3485826109b9565b865550610a9c565b601f198416610a4a8661081f565b60005b82811015610a7257848901358255600182019150602085019450602081019050610a4d565b86831015610a8f5784890135610a8b601f89168261099b565b8355505b6001600288020188555050505b5050505050505056fea26469706673582212208112b8931b37632224ab6909906ef77ecc90b253c813339ee7ba29fb4cca1c0764736f6c63430008170033",
  "linkReferences": {},
  "deployedLinkReferences": {}
}