{
  "_format": "hh-sol-artifact-1",
  "contractName": "MockAaveRegistry",
  "sourceName": "contracts/evm/tests/mock_aave.sol",
  "abi": [
    {
      "anonymous": false,
      "inputs": [
        {
          "indexed": true,
          "internalType": "address",
          "name": "addressesProvider",
          "type": "address"
        },
        {
          "indexed": true,
          "internalType": "uint256",
          "name": "id",
          "type": "uint256"
        }
      ],
      "name": "AddressesProviderRegistered",
      "type": "event"
    },
    {
      "anonymous": false,
      "inputs": [
        {
          "indexed": true,
          "internalType": "address",
          "name": "addressesProvider",
          "type": "address"
        },
        {
          "indexed": true,
          "internalType": "uint256",
          "name": "id",
          "type": "uint256"
        }
      ],
      "name": "AddressesProviderUnregistered",
      "type": "event"
    },
    {
      "inputs": [
        {
          "internalType": "uint256",
          "name": "",
          "type": "uint256"
        }
      ],
      "name": "getAddressesProviderAddressById",
      "outputs": [
        {
          "internalType": "address",
          "name": "",
          "type": "address"
        }
      ],
      "stateMutability": "pure",
      "type": "function"
    },
    {
      "inputs": [
        {
          "internalType": "address",
          "name": "addressesProvider",
          "type": "address"
        }
      ],
      "name": "getAddressesProviderIdByAddress",
      "outputs": [
        {
          "internalType": "uint256",
          "name": "",
          "type": "uint256"
        }
      ],
      "stateMutability": "view",
      "type": "function"
    },
    {
      "inputs": [],
      "name": "getAddressesProvidersList",
      "outputs": [
        {
          "internalType": "address[]",
          "name": "",
          "type": "address[]"
        }
      ],
      "stateMutability": "pure",
      "type": "function"
    },
    {
      "inputs": [
        {
          "internalType": "address",
          "name": "provider",
          "type": "address"
        },
        {
          "internalType": "uint256",
          "name": "id",
          "type": "uint256"
        }
      ],
      "name": "registerAddressesProvider",
      "outputs": [],
      "stateMutability": "nonpayable",
      "type": "function"
    },
    {
      "inputs": [
        {
          "internalType": "address",
          "name": "provider",
          "type": "address"
        }
      ],
      "name": "unregisterAddressesProvider",
      "outputs": [],
      "stateMutability": "nonpayable",
      "type": "function"
    }
  ],
  "bytecode": "0x608060405234801561001057600080fd5b5061048f806100206000396000f3fe608060405234801561001057600080fd5b50600436106100575760003560e01c80630de267071461005c578063365ccbbf1461007857806357dc056614610096578063d0267be7146100c6578063d258191e146100f6575b600080fd5b61007660048036038101906100719190610255565b610112565b005b610080610159565b60405161008d9190610340565b60405180910390f35b6100b060048036038101906100ab9190610398565b61015e565b6040516100bd91906103d4565b60405180910390f35b6100e060048036038101906100db9190610255565b610163565b6040516100ed91906103fe565b60405180910390f35b610110600480360381019061010b9190610419565b6101ab565b005b60008060008373ffffffffffffffffffffffffffffffffffffffff1673ffffffffffffffffffffffffffffffffffffffff1681526020019081526020016000208190555050565b600080fd5b600080fd5b60008060008373ffffffffffffffffffffffffffffffffffffffff1673ffffffffffffffffffffffffffffffffffffffff168152602001908152602001600020549050919050565b806000808473ffffffffffffffffffffffffffffffffffffffff1673ffffffffffffffffffffffffffffffffffffffff168152602001908152602001600020819055505050565b600080fd5b600073ffffffffffffffffffffffffffffffffffffffff82169050919050565b6000610222826101f7565b9050919050565b61023281610217565b811461023d57600080fd5b50565b60008135905061024f81610229565b92915050565b60006020828403121561026b5761026a6101f2565b5b600061027984828501610240565b91505092915050565b600081519050919050565b600082825260208201905092915050565b6000819050602082019050919050565b6102b781610217565b82525050565b60006102c983836102ae565b60208301905092915050565b6000602082019050919050565b60006102ed82610282565b6102f7818561028d565b93506103028361029e565b8060005b8381101561033357815161031a88826102bd565b9750610325836102d5565b925050600181019050610306565b5085935050505092915050565b6000602082019050818103600083015261035a81846102e2565b905092915050565b6000819050919050565b61037581610362565b811461038057600080fd5b50565b6000813590506103928161036c565b92915050565b6000602082840312156103ae576103ad6101f2565b5b60006103bc84828501610383565b91505092915050565b6103ce81610217565b82525050565b60006020820190506103e960008301846103c5565b92915050565b6103f881610362565b82525050565b600060208201905061041360008301846103ef565b92915050565b600080604083850312156104305761042f6101f2565b5b600061043e85828601610240565b925050602061044f85828601610383565b915050925092905056fea2646970667358221220d80b1decbf4e4249889a9022e9c44cb58d2c2dd01c6d6915fc07f4c292786a8664736f6c63430008170033",
  "linkReferences": {},
  "deployedLinkReferences": {}
}